:0400000063EF00F0BA
:1000080018091809180918091809180918091809E0
:1000180018091809180918091809180918091809D0
:1000280018091809180918091809180918091809C0
:1000380018091809180918091809180918091809B0
:1000480018091809180918091809180918091809A0
:100058003100180918091809180918091809180980
:100068001809180918091809180918091809180980
:100078001809180918091809310018091809180960
:100088001809180918091809310018091809180950
:100098001809310031003100180918091809180920
:1000A8001809180918091809180918091809180940
:1000B800180918091809180918091809FF0028EF5C
:0200C80016F030
:100E0000000A0D3E205541525420436F6E6E6563BB
:100E100074696F6E2073746172746564210A0A0DBF
:100E2000002D2D2D2D2D2D2D2D2D2D2D2D2D2D2D1F
:100E30002D2D2D2D2D2D2D2D0025640A0D00256421
:100E400000002B50800B346E2B502B24366E2AAEB4
:100E50002CEF07F02EEF07F02FEF07F0368036501B
:100E6000D8B435EF07F037EF07F04BEF07F036282F
:100E7000D8A43DEF07F03FEF07F047EF07F0000E73
:100E8000286E000E296E000E2A6E000E2B6E2A8E22
:100E90002B6A53EF07F0000E286E000E296E000E2D
:100EA0002A6E000E2B6E2F50800B356E3450351885
:100EB000D8B45DEF07F05FEF07F060EF07F0348C18
:100EC0002F502F24356E2EAE68EF07F06AEF07F033
:100ED0006BEF07F035803550D8B471EF07F073EF42
:100EE00007F087EF07F03528D8A479EF07F07BEFFC
:100EF00007F083EF07F0000E2C6E000E2D6E000E33
:100F00002E6E000E2F6E2E8E2F6A8FEF07F0000EC2
:100F10002C6E000E2D6E000E2E6E000E2F6E3650B3
:100F2000355CD8B096EF07F098EF07F0BFEF07F009
:100F300034AC9DEF07F09FEF07F0A1EF07F0800EB4
:100F4000341A36C537F535C536F537C535F528C5F4
:100F500037F52CC528F537C52CF529C537F52DC52E
:100F600029F537C52DF52AC537F52EC52AF537C51C
:100F70002EF52BC537F52FC52BF537C52FF5376A5D
:100F8000365035C530F5316A305E000E315A31BE0B
:100F9000D3EF07F0315009E11A0E305CD8A0D3EF3F
:100FA00007F0D5EF07F00CEF08F0285029102A10B1
:100FB0002B10D8A4DEEF07F0E1EF07F0010EE2EF0F
:100FC00007F0000E376E000E286E000E296E000E20
:100FD0002A6E000E2B6E35C536F515EF08F037A0DA
:100FE000F4EF07F0F6EF07F0FCEF07F0D89037309A
:100FF0000109376EFEEF07F0D890373228A003EFD3
:1010000008F005EF08F006EF08F0378E2B342B328E
:101010002A3229322832362A3550365CD8A013EFCE
:1010200008F015EF08F0EFEF07F034BC1AEF08F006
:101030001CEF08F05CEF08F03650D8A422EF08F05F
:1010400024EF08F02EEF08F0000E286E000E296E37
:10105000000E2A6E000E2B6E7BEF09F02C50282616
:101060002D5029222E502A222F502B222BA03BEF2D
:1010700008F03DEF08F0E9EF08F037A042EF08F084
:1010800044EF08F04AEF08F0D89037300109376E86
:101090004CEF08F0D890373228A051EF08F053EF0A
:1010A00008F054EF08F0378E2B342B322A322932D5
:1010B0002832362AE9EF08F02C50285C2D502958A8
:1010C0002E502A582B50800A306E2F50800A3058EC
:1010D000D8B06DEF08F06FEF08F09AEF08F02850E5
:1010E0002C5C306E29502D58316E2A502E58326E9D
:1010F0002B502F58336EFF0E3024286EFF0E3120F8
:10110000296EFF0E32202A6EFF0E33202B6E800ECA
:10111000341A376C3750D8A490EF08F092EF08F0EB
:10112000A2EF08F0010E2826000E29222A222B22E7
:10113000A2EF08F02C50285E2D50295A2E502A5A22
:101140002F502B5A285029102A102B10D8A4ABEF5F
:1011500008F0ADEF08F0E2EF08F03750D8A4B3EF95
:1011600008F0B5EF08F0E2EF08F0000E286E000E70
:10117000296E000E2A6E000E2B6E7BEF09F0D890C0
:10118000283629362A362B3637AEC9EF08F0CBEF92
:1011900008F0CCEF08F0288037A0D1EF08F0D3EFAB
:1011A00008F0D7EF08F0D8803736D9EF08F0D8909C
:1011B00037363650D8B4DFEF08F0E1EF08F0E2EF51
:1011C00008F036062AAEE7EF08F0E9EF08F0BFEFC7
:1011D00008F0356A37AEEFEF08F0F1EF08F009EFED
:1011E00009F037C530F57F0E3016D8B4FAEF08F0A5
:1011F000FCEF08F000EF09F0010E356E09EF09F081
:1012000028A005EF09F007EF09F009EF09F0FCEF5E
:1012100008F03550D8B40FEF09F011EF09F03CEFAA
:1012200009F0010E2826000E29222A222B222BA0AB
:101230001CEF09F01EEF09F03CEF09F028C530F56E
:1012400029C531F52AC532F52BC533F53334333290
:1012500032323132303230C528F531C529F532C548
:101260002AF533C52BF53628D8B439EF09F03BEF12
:1012700009F03CEF09F0362A3628D8B442EF09F0DD
:1012800044EF09F04CEF09F03650D8A44AEF09F0CA
:101290004CEF09F05DEF09F0000E286E000E296E8C
:1012A000000E2A6E000E2B6E3650D8A45AEF09F0AD
:1012B0005CEF09F05DEF09F0346A36A062EF09F0E7
:1012C00064EF09F067EF09F02A8E68EF09F02A9EB3
:1012D000D89036302B6E34AE70EF09F072EF09F013
:1012E00073EF09F02B8E28C528F529C529F52AC5E5
:1012F0002AF52BC52BF512001250800B1F6E1250D1
:101300001224266E11AE87EF09F089EF09F08AEFFB
:1013100009F026802650D8B490EF09F092EF09F03A
:10132000A6EF09F02628D8A498EF09F09AEF09F063
:10133000A2EF09F0000E0F6E000E106E000E116E7F
:10134000000E126E118E126AAEEF09F0000E0F6ED3
:10135000000E106E000E116E000E126E1650800BF5
:101360001F1A16501624276E15AEB9EF09F0BBEF01
:1013700009F0BCEF09F027802750D8B4C2EF09F07C
:10138000C4EF09F0D8EF09F02728D8A4CAEF09F074
:10139000CCEF09F0D4EF09F0000E136E000E146EBE
:1013A000000E156E000E166E158E166AE0EF09F02F
:1013B000000E136E000E146E000E156E000E166EEB
:1013C0001350141015101610D8A4E9EF09F0EBEF24
:1013D00009F003EF0AF0000E0F6E000E106E000E03
:1013E000116E000E126E800E11127F0E12121F501F
:1013F00012120FC50FF510C510F511C511F512C564
:1014000012F543EF0BF02650D8A409EF0AF00BEFCA
:101410000AF015EF0AF0000E0F6E000E106E000EAF
:10142000116E000E126E43EF0BF0275026C517F514
:10143000186A175E000E185A7F0E1724206E000ED1
:101440001820216E0FC51BF510C51CF511C51DF523
:1014500012C51EF5000E0F6E000E106E000E116EFE
:10146000000E126E000E226E000E236E000E246E11
:10147000000E256E276A75EF0AF02750D8B443EFA7
:101480000AF045EF0AF05CEF0AF0D8901B361C36E4
:101490001D361E36D8900F3610361136123625AE50
:1014A00054EF0AF056EF0AF057EF0AF00F80D89089
:1014B000223623362436253613501B5C14501C5814
:1014C00015501D5816501E58D8A069EF0AF06BEF42
:1014D0000AF074EF0AF0258C13501B5E14501C5A4E
:1014E00015501D5A16501E5A272A190E27647BEFD5
:1014F0000AF07DEF0AF03DEF0AF01B501C101D10A2
:101500001E10D8B486EF0AF088EF0AF0A0EF0AF0B8
:101510002280A0EF0AF0D8900F361036113612361E
:1015200025AE95EF0AF097EF0AF098EF0AF00F80DA
:10153000D89022362336243625362006D8A0210618
:1015400011AEA5EF0AF0A7EF0AF08BEF0AF0276AB9
:1015500025AEADEF0AF0AFEF0AF0D3EF0AF0FF0EC1
:101560002214176EFF0E2314186EFF0E2414196E2A
:101570007F0E25141A6E1750181019101A10D8B4AF
:10158000C4EF0AF0C6EF0AF0CAEF0AF0010E276EA8
:10159000D3EF0AF00FA0CFEF0AF0D1EF0AF0D3EFAC
:1015A0000AF0C6EF0AF02750D8B4D9EF0AF0DBEF03
:1015B0000AF0FFEF0AF0010E0F26000E1022112292
:1015C000122212A0E6EF0AF0E8EF0AF0FFEF0AF0AD
:1015D0000FC517F510C518F511C519F512C51AF57F
:1015E0001A341A3219321832173217C50FF518C5C6
:1015F00010F519C511F51AC512F5204A212A21BE88
:101600000AEF0BF0215008E12028D8A00AEF0BF0D8
:101610000CEF0BF017EF0BF0000E216E2068000EA0
:101620000F6E000E106E000E116E000E126E21BEB7
:1016300024EF0BF0215006E12004D8B022EF0BF08C
:1016400024EF0BF031EF0BF0000E216E000E206E38
:10165000000E0F6E000E106E000E116E000E126E58
:101660001F6A20C526F526A038EF0BF03AEF0BF0E5
:101670003DEF0BF0118E3EEF0BF0119ED89026300F
:10168000126EF7EF09F01200210E056E0550D8A476
:101690000E0E066E1CEC17F0000E536E000E526E0E
:1016A00052504224D96E53504320DA6EDF50446EBC
:1016B0004450326E336ACEEC19F0524A532A53BE6C
:1016C00069EF0BF0020E535CD8A069EF0BF06BEFE3
:1016D0000BF050EF0BF0000E576E000E566EB5C5B6
:1016E000B3F5B6C5B4F5000E0501B66F000EB56FC3
:1016F000000E556E000E546EB8EF0BF0545042249D
:10170000446E55504320456E56504424D96E575070
:101710004520DA6EDF50466E800E4624476E486ADA
:10172000FF0E482254504224D96E55504320DA6EA1
:10173000DF50496E800E49244A6E4B6AFF0E4B22E1
:1017400047504A02F3C44CF5F4C44DF54B02F35034
:101750004D2648504A02F3504D264DC54CF54D6A72
:101760004CBE4D684C50B5274D50B623544A552AAF
:10177000000E446E020E456E5650445E5750455A58
:101780004450545C5550800A466E4550800A465875
:10179000D8A0CDEF0BF0CFEF0BF07EEF0BF0020EE9
:1017A000BC19D8A4D6EF0BF0D8EF0BF0E9EF0BF093
:1017B000B551B35DB651B459D8A0E1EF0BF0E3EFEA
:1017C0000BF0E9EF0BF056C5C9F557C5CAF5030E86
:1017D000BC6FBC05D8A4EFEF0BF0F1EF0BF009EFF5
:1017E0000CF0B551B15DB651B259D8B0FAEF0BF06B
:1017F000FCEF0BF009EF0CF0B551B35DB651B459E5
:10180000D8B005EF0CF007EF0CF009EF0CF0020E6A
:10181000BC6F56505710D8A410EF0CF012EF0CF01C
:101820001BEF0CF0D890B631446EB531B16F44C5A2
:10183000B2F5010EBC6F564A572A57BE27EF0CF07F
:10184000020E575CD8A027EF0CF029EF0CF06FEFD9
:101850000BF0B25109E1650EB15DD8A032EF0CF08A
:1018600034EF0CF097EF0CF0000E2C6E000E2D6E86
:10187000000E2E6E3F0E2F6EC9C501F5CAC502F5CA
:10188000036A046A000E8AEC0EF001C513F502C566
:1018900014F503C515F504C516F5000E0F6E200EE0
:1018A000106EF40E116E440E126E7CEC09F00FC532
:1018B00028F510C529F511C52AF512C52BF521EC1F
:1018C00007F028C538F529C539F52AC53AF52BC5DD
:1018D0003BF5ACEC11F038C54EF539C54FF5000EAF
:1018E0004FBEFF0E506E516E4EC501F54FC502F54D
:1018F00050C503F551C504F5010E8AEC0EF001C583
:10190000A5F502C5A6F503C5A7F504C5A8F5A5C5A7
:1019100038F5A6C539F5A7C53AF5A8C53BF5ACEC31
:1019200011F038C542F539C543F59BEF0CF0000EB8
:10193000436E050E426E120080C5D9F481C5DAF4FB
:10194000DFC4F6F40E0EF76E0800F550250AD8A491
:10195000ACEF0CF0AEEF0CF07FEF0DF080C5D9F4DA
:1019600081C5DAF4DF2A000E0501AE6F000EAD6FFF
:10197000ADC5BBF5AF69B06980C5D9F481C5DAF4EE
:10198000DF50876F87C5F6F40E0EF76E0800F5502E
:10199000640AD8B4CEEF0CF0D0EF0CF0DEEF0CF010
:1019A00087C5F6F40E0EF76E0800F550690AD8A444
:1019B000DCEF0CF0DEEF0CF078EF0DF082C5D9F41F
:1019C00083C5DAF4DFC484F5020EDE26DFC485F5B4
:1019D000000EDD2284C5D9F485C5DAF4DEC488F5AD
:1019E000DDC489F5872980C5D9F481C5DAF4DF6EB5
:1019F000200E8C6F89BFFFEF0CF002EF0DF0010E8F
:101A000003EF0DF0000E866F8C07C80E8C25D96E83
:101A1000DA6A060EDA2288C574F589C575F5000EF6
:101A2000776F0A0E766F9FEC14F074C57AF575C562
:101A30007BF571EC19F005017A51300FDF6E88C526
:101A400074F589C575F5000E776F0A0E766FDCECBC
:101A500013F074C588F575C589F50501885189119C
:101A6000D8B435EF0DF037EF0DF03FEF0DF08C519E
:101A7000D8A43DEF0DF03FEF0DF004EF0DF08C51C9
:101A8000D8B445EF0DF047EF0DF06DEF0DF0865136
:101A9000D8B44DEF0DF04FEF0DF06DEF0DF08C075A
:101AA000C80E8C25D96EDA6A060EDA222D0EDF6E8C
:101AB0006DEF0DF0C80E8C25D96EDA6A060EDA22AB
:101AC000DF50846F8451746F756B7EC576F57FC56A
:101AD00077F5ADEC12F005018C2B200E8C19D8A4F3
:101AE00074EF0DF076EF0DF05AEF0DF094EF0DF06E
:101AF00080C5D9F481C5DAF4DF2A94EF0DF080C5F2
:101B0000D9F481C5DAF4DFC4F6F40E0EF76E0800DE
:101B1000F5500501746F756B7EC576F57FC577F559
:101B2000ADEC12F078EF0DF012000DC5D9F40EC532
:101B3000DAF4DFC4F6F40E0EF76E0800F550250A4D
:101B4000D8A4A5EF0DF0A7EF0DF075EF0EF00DC5C1
:101B5000D9F40EC5DAF4DF2A000E0501AE6F000ECF
:101B6000AD6FADC5BBF5AF69B0690DC5D9F40EC594
:101B7000DAF4DF50146E14C5F6F40E0EF76E08009A
:101B8000F550640AD8B4C7EF0DF0C9EF0DF0D7EFE8
:101B90000DF014C5F6F40E0EF76E0800F550690A44
:101BA000D8A4D5EF0DF0D7EF0DF06EEF0EF00FC506
:101BB000D9F410C5DAF4DFC411F5020EDE26DFC455
:101BC00012F5000EDD2211C5D9F412C5DAF4DEC417
:101BD00015F5DDC416F514280DC5D9F40EC5DAF4D3
:101BE000DF6E200E196E16BEF8EF0DF0FBEF0DF054
:101BF000010EFCEF0DF0000E136E1906C80E19242D
:101C0000D96EDA6A060EDA2215C501F516C502F597
:101C1000000E046E0A0E036EF7EC14F001C507F512
:101C200002C508F58CEC19F00750300FDF6E15C5B2
:101C300001F516C502F5000E046E0A0E036E3EECA9
:101C400014F001C515F502C516F515501610D8B4D7
:101C50002CEF0EF02EEF0EF036EF0EF01950D8A448
:101C600034EF0EF036EF0EF0FDEF0DF01950D8B452
:101C70003CEF0EF03EEF0EF063EF0EF01350D8B4D1
:101C800044EF0EF046EF0EF063EF0EF01906C80EAB
:101C90001924D96EDA6A060EDA222D0EDF6E63EF92
:101CA0000EF0C80E1924D96EDA6A060EDA22DF5059
:101CB000116E1150016E026A0BC503F50CC504F5D7
:101CC00013EC13F0192A200E1918D8A46AEF0EF09D
:101CD0006CEF0EF051EF0EF089EF0EF00DC5D9F458
:101CE0000EC5DAF4DF2A89EF0EF00DC5D9F40EC562
:101CF000DAF4DFC4F6F40E0EF76E0800F550016E4C
:101D0000026A0BC503F50CC504F513EC13F06EEF76
:101D10000EF01200096E0950D8B491EF0EF093EF57
:101D20000EF0B5EF0EF004BE9AEF0EF098EF0EF045
:101D3000B5EF0EF001C505F502C506F503C507F5BB
:101D400004C508F5051E061E071E081E052A000EFE
:101D500006220722082205C50BF506C50CF507C5A6
:101D60000DF508C50EF5BDEF0EF001C50BF502C56A
:101D70000CF503C50DF504C50EF501500210031056
:101D80000410D8A4C6EF0EF0C8EF0EF0D2EF0EF09C
:101D9000000E016E000E026E000E036E000E046E49
:101DA00063EF0FF0960E0A6EDCEF0EF00A2AD89061
:101DB0000E320D320C320B32000E0B14056E000E7B
:101DC0000C14066E000E0D14076EFE0E0E14086E37
:101DD0000550061007100810D8A4F1EF0EF0F3EF2D
:101DE0000EF0D6EF0EF001EF0FF00A2A010E0B26CF
:101DF000000E0C220D220E22D8900E320D320C3223
:101E00000B32000E0B14056E000E0C14066E000E45
:101E10000D14076EFF0E0E14086E05500610071005
:101E20000810D8A416EF0FF018EF0FF0F5EF0EF032
:101E300020EF0FF00A06D8900B360C360D360E3612
:101E40000DBE25EF0FF027EF0FF02FEF0FF0020E72
:101E50000A602DEF0FF02FEF0FF01AEF0FF00AB01E
:101E600034EF0FF036EF0FF037EF0FF00D9ED890F4
:101E70000A320AC505F5066A076A086A05C508F543
:101E8000076A066A056A05500B1206500C120750C5
:101E90000D1208500E120950D8B451EF0FF053EF45
:101EA0000FF05BEF0FF004BE5AEF0FF058EF0FF09A
:101EB0005BEF0FF00E8E0BC501F50CC502F50DC5DD
:101EC00003F50EC504F51200600E206E050E216E9E
:101ED0003E0E226E58C523F559C524F5D8EC18F0EE
:101EE000A9C565F5AAC566F5ABC567F5ACC568F5C6
:101EF000000E05016A6F000E696F600E6925D96ECC
:101F0000050E6A21DA6EDF50646FF4EF0FF0650E94
:101F10006925D96E050E6A21DA6E3F0EDF6E1FEF5E
:101F200010F0650E6925D96E050E6A21DA6E060E6F
:101F3000DF6E1FEF10F0650E6925D96E050E6A2160
:101F4000DA6E5B0EDF6E1FEF10F0650E6925D96E3D
:101F5000050E6A21DA6E4F0EDF6E1FEF10F0650E70
:101F60006925D96E050E6A21DA6E660EDF6E1FEFE7
:101F700010F0650E6925D96E050E6A21DA6E6D0EB8
:101F8000DF6E1FEF10F0650E6925D96E050E6A2110
:101F9000DA6E7D0EDF6E1FEF10F0650E6925D96ECB
:101FA000050E6A21DA6E070EDF6E1FEF10F0650E68
:101FB0006925D96E050E6A21DA6E7F0EDF6E1FEF7E
:101FC00010F0650E6925D96E050E6A21DA6E6F0E66
:101FD000DF6E1FEF10F0650E6925D96E050E6A21C0
:101FE000DA6EDF6A1FEF10F06451300AD8B487EF61
:101FF0000FF0010AD8B491EF0FF0030AD8B49BEFA9
:102000000FF0010AD8B4A5EF0FF0070AD8B4AFEF6C
:102010000FF0010AD8B4B9EF0FF0030AD8B4C3EF38
:102020000FF0010AD8B4CDEF0FF00F0AD8B4D7EFF4
:102030000FF0010AD8B4E1EF0FF0EBEF0FF0694BAE
:102040006A2B6A5109E1040E695DD8A02AEF10F0ED
:102050002CEF10F07DEF0FF066C505F567C506F5AE
:1020600068C507F5000E086E65518DEC18F012007A
:10207000EB0E0501936F060E946F3E0E956FE8C64A
:1020800096F5E9C697F541EC18F0000E0601F06FE1
:10209000000EEF6FEB0EEF25D96E060EF021DA6E13
:1020A000DF50EA6FC1EF10F0ED0EEF25D96E060E8E
:1020B000F021DA6E3F0EDF6EECEF10F0ED0EEF2543
:1020C000D96E060EF021DA6E060EDF6EECEF10F020
:1020D000ED0EEF25D96E060EF021DA6E5B0EDF6E87
:1020E000ECEF10F0ED0EEF25D96E060EF021DA6E52
:1020F0004F0EDF6EECEF10F0ED0EEF25D96E060EF1
:10210000F021DA6E660EDF6EECEF10F0ED0EEF25CB
:10211000D96E060EF021DA6E6D0EDF6EECEF10F068
:10212000ED0EEF25D96E060EF021DA6E7D0EDF6E14
:10213000ECEF10F0ED0EEF25D96E060EF021DA6E01
:10214000070EDF6EECEF10F0ED0EEF25D96E060EE8
:10215000F021DA6E7F0EDF6EECEF10F0ED0EEF2562
:10216000D96E060EF021DA6E6F0EDF6EECEF10F016
:10217000ED0EEF25D96E060EF021DA6EDF6AECEF78
:1021800010F0EA51300AD8B454EF10F0010AD8B474
:102190005EEF10F0030AD8B468EF10F0010AD8B46B
:1021A00072EF10F0070AD8B47CEF10F0010AD8B42F
:1021B00086EF10F0030AD8B490EF10F0010AD8B4FB
:1021C0009AEF10F00F0AD8B4A4EF10F0010AD8B4B7
:1021D000AEEF10F0B8EF10F0EF4BF02BF05109E13B
:1021E000020EEF5DD8A0F7EF10F0F9EF10F04AEF14
:1021F00010F0ED0EE86F060EE96F1200BD0E05013E
:10220000746F050E756F00C676F501C677F539EC6B
:1022100019F0010149914181E1EC19F00501D15119
:10222000D8B415EF11F017EF11F074EF11F0010EA3
:10223000B925746F000EBA21756F000E776F0C0E02
:10224000766F9FEC14F0BD0E05017425D96E050E56
:102250007521DA6EDF507A6F020EB925746F000EA9
:10226000BA21756F000E776F0C0E766F9FEC14F02D
:10227000BD0E05017425D96E050E7521DA6EDF508D
:102280007B6F030EB925746F000EBA21756F000EB7
:10229000776F0C0E766F9FEC14F0BD0E0501742560
:1022A000D96E050E7521DA6EDF507C6F000E7D6FE2
:1022B000BD0EB925D96E050EBA21DA6EDF50A3EC3A
:1022C00017F0010E0501B925746F000EBA21756F64
:1022D000000E776F0C0E766F9FEC14F074C5B9F595
:1022E00075C5BAF59BEF11F0CBC5E8F6CCC5E9F69C
:1022F00038EC10F0E8C6F3F6E9C6F4F61C0E05015A
:102300007A6FF3C6D9F4F4C6DAF4DF507B6F0601B6
:1023100020EE01F0F351D926F451DA22DF50050105
:102320007C6F010E7D6F000EA3EC17F0000E05010F
:10233000BA6F000EB96F060E0601F26F130EF16F41
:10234000AD0EE82EFED7F12FFCD7F22FFAD700D032
:102350000EEF11F063EF00F03A343B34416E415020
:10236000D8A4B5EF11F0B7EF11F0C1EF11F0000EE6
:10237000386E000E396E000E3A6E000E3B6E2EEF78
:1023800012F038C53CF539C53DF53AC53EF53BC5BB
:102390003FF5200ED1EF11F0D8903F323E323D3262
:1023A0003C32E82ECCEF11F03C50406E3A8EFF0EDE
:1023B0003816FF0E3916FF0E3A16000E3B16960E13
:1023C000415E41BEE8EF11F0E6EF11F0FEEF11F0D3
:1023D0004150800A970FD8B0F0EF11F0F2EF11F0F2
:1023E000F4EF11F0B7EF11F0D8903B323A323932B6
:1023F0003832413EF4EF11F016EF12F01F0E416437
:1024000004EF12F006EF12F00EEF12F0B7EF11F03A
:10241000D890383639363A363B3641064150D8A442
:1024200014EF12F016EF12F008EF12F04050D8B48B
:102430001CEF12F01EEF12F026EF12F03B1E3A1EB8
:10244000391E386C000E39223A223B2238C538F545
:0E24500039C539F53AC53AF53BC53BF51200E2
:10246000F6C470F5F7C471F5F8C472F5F5C473F5E8
:10247000040107A73EEF12F040EF12F046EF12F012
:10248000BBEC19F004010797A4EF12F007A54BEF7E
:1024900012F04DEF12F05DEF12F00501D16BCF0E8F
:1024A000076E050E086ECB0E096E050E0A6E4EEC19
:1024B00015F004010795A4EF12F007A962EF12F0DE
:1024C00064EF12F06AEF12F0AFEC1AF00401079912
:1024D000A4EF12F007AB6FEF12F071EF12F082EF82
:1024E00012F0010E0501D16FCD0E6B6F050E6C6FF2
:1024F000EA0E6D6F050E6E6F9CEC15F00401079BE4
:10250000A4EF12F0B7A487EF12F089EF12F0A4EF56
:1025100012F0B99EB794010141A191EF12F096EF2C
:1025200012F005016F6B6F2B98EF12F005016F6BC6
:102530000101415105016F19FE0B6F190101416F36
:1025400067EC18F0A4EF12F073C5F5F472C5F8F457
:1025500071C5F7F470C5F6F41100050176517711D5
:10256000D8B4B5EF12F0B7EF12F0C0EF12F0765119
:102570007711D8A4BEEF12F0C0EF12F0C5EF12F041
:102580007451AEEC1AF012EF13F020EE09F0765110
:10259000D9267751DA22DE50DE10D8B4D2EF12F00D
:1025A000D4EF12F0EFEF12F020EE09F07651D926B9
:1025B0007751DA2210EE02F07651E1267751E222CD
:1025C000DE50E65CE650800A7C6FDE50800A7C5963
:1025D000D8B0EDEF12F0EFEF12F012EF13F020EEA3
:1025E00002F07651D9267751DA22DEC478F5DDC4BF
:1025F00079F576C5D9F477C5DAF4DEC47AF5DDC4A9
:102600007BF578517A25D96E79517B21DA6E74C5C4
:10261000DFF420EE02F07651D9267751DA22DE2A55
:10262000000EDD22120003500410D8B41AEF13F08C
:102630001CEF13F025EF13F003500410D8A423EF80
:1026400013F025EF13F02AEF13F00150B0EC1AF05D
:1026500077EF13F020EE09F00350D9260450DA2268
:10266000DE50DE10D8B437EF13F039EF13F054EF2B
:1026700013F020EE09F00350D9260450DA2210EEB0
:1026800002F00350E1260450E222DE50E65CE65000
:10269000800A096EDE50800A0958D8B052EF13F054
:1026A00054EF13F077EF13F020EE02F00350D92629
:1026B0000450DA22DEC405F5DDC406F503C5D9F4FD
:1026C00004C5DAF4DEC407F5DDC408F505500724B7
:1026D000D96E06500820DA6E01C5DFF420EE02F054
:1026E0000350D9260450DA22DE2A000EDD22120021
:1026F000DE05D205BC06B006A40698068C06800648
:10270000740668065C065006440638062C06200649
:102710005E7938776E060000000000005E79387739
:102720006E4F00000000000077557C66000000003E
:102730000000000079775038507971660000000081
:1027400039745C503E6D6600000000005E79387799
:102750006E07000000000000713877543D79505B2F
:10276000000000007374776D7950060000000000CF
:102770006D735004543D4F7C00000000505C5C556C
:102780005B770000000000003D7778795E667C0092
:102790000000000050791C79506D4F7C0000000053
:1027A000397477557C79505B00000000505C5C55B3
:1027B0004F7C0000000000000501796B77BFE5EF5A
:1027C00013F0E3EF13F0EBEF13F0766D771FD8B053
:1027D000772B010E796F75BFF2EF13F0F0EF13F066
:1027E000F8EF13F0746D751FD8B0752B010E791BBF
:1027F000000E7B6F000E7A6F76517711D8B403EF1D
:1028000014F005EF14F02DEF14F0010E786F0DEFBA
:1028100014F0D89076377737782B77AF12EF14F023
:1028200014EF14F009EF14F0D8907A377B37765113
:10283000745D77517559D8A020EF14F022EF14F091
:1028400027EF14F07651745F7751755B7A81D890D9
:1028500077337633782F14EF14F07951D8B433EFFF
:1028600014F035EF14F039EF14F07A6D7B1FD8B007
:102870007B2B7AC574F57BC575F51200066A04BE1C
:1028800046EF14F044EF14F04CEF14F0036C041E08
:10289000D8B0042A010E066E02BE53EF14F051EFB9
:1028A00014F059EF14F0016C021ED8B0022A010E88
:1028B000061A000E086E000E076E03500410D8B4FE
:1028C00064EF14F066EF14F08EEF14F0010E056E55
:1028D0006EEF14F0D89003360436052A04AE73EF79
:1028E00014F075EF14F06AEF14F0D890073608363C
:1028F0000350015C04500258D8A081EF14F083EF1C
:1029000014F088EF14F00350015E0450025A07805F
:10291000D89004320332052E75EF14F00650D8B467
:1029200094EF14F096EF14F09AEF14F0076C081E71
:10293000D8B0082A07C501F508C502F5120005013F
:10294000796B75BFA8EF14F0A6EF14F0AEEF14F09A
:10295000746D751FD8B0752B010E796F77BFB5EF09
:1029600014F0B3EF14F0B9EF14F0766D771FD8B010
:10297000772B76517711D8B4C0EF14F0C2EF14F072
:10298000E6EF14F0010E786FCAEF14F0D8907637A6
:102990007737782B77AFCFEF14F0D1EF14F0C6EF85
:1029A00014F07651745D77517559D8A0DAEF14F0B0
:1029B000DCEF14F0E0EF14F07651745F7751755B43
:1029C000D89077337633782FD1EF14F07951D8B48B
:1029D000ECEF14F0EEEF14F0F2EF14F0746D751FDD
:1029E000D8B0752B74C574F575C575F51200066AF7
:1029F00002BEFFEF14F0FDEF14F005EF15F0016CCF
:102A0000021ED8B0022A010E066E04BE0CEF15F0AD
:102A10000AEF15F010EF15F0036C041ED8B0042A6D
:102A200003500410D8B417EF15F019EF15F03DEF6F
:102A300015F0010E056E21EF15F0D890033604361F
:102A4000052A04AE26EF15F028EF15F01DEF15F05E
:102A50000350015C04500258D8A031EF15F033EF59
:102A600015F037EF15F00350015E0450025AD8906C
:102A700004320332052E28EF15F00650D8B443EF88
:102A800015F045EF15F049EF15F0016C021ED8B0B6
:102A9000022A01C501F502C502F51200010150A389
:102AA00054EF15F056EF15F07AEF15F0020E0726E9
:102AB000000E082207C5D9F408C5DAF4010EDBBE02
:102AC0006CEF15F0010EDB5009E1040EDE5CD8A0BE
:102AD0006CEF15F06EEF15F09BEF15F007C501F5E3
:102AE00008C502F509C503F50AC504F5FCEC18F0A4
:102AF0009BEF15F0020E075E000E085A07C5D9F4C9
:102B000008C5DAF4010EDBAE8FEF15F0FD0EDE5CCA
:102B1000FF0EDE58D8B08FEF15F091EF15F09BEF58
:102B200015F007C501F508C502F509C503F50AC585
:102B300004F51BEC19F01200010154A1A2EF15F0ED
:102B4000A4EF15F0C0EF15F0020E05016B27000E83
:102B50006C236C5109E1040E6B5DD8A0B2EF15F047
:102B6000B4EF15F0DAEF15F06BC55AF56CC55BF5EF
:102B70006DC55CF56EC55DF57AEC17F0DAEF15F012
:102B8000020E05016B5F000E6C5BFD0E6B5DFF0EB0
:102B90006C59D8B0CEEF15F0D0EF15F0DAEF15F094
:102BA0006BC501F56CC502F56DC503F56EC504F581
:102BB000CBEC17F06DC5D9F46EC5DAF4DEC401F5BF
:102BC000DDC402F5E5EC15F0120001C503F5010EB8
:102BD0000316010141510318FE0B0318416F023423
:102BE0000230046E0130036E010E0316033203320D
:102BF000435103187F0B0318436F01C503F502C54A
:102C000004F5043404320332043404320332010E76
:102C10000316033A0346034643510318BF0B031838
:102C2000436F01C503F502C504F5043404320332D1
:102C3000043404320332043404320332010E031626
:102C4000033A034643510318DF0B0318436F120086
:102C5000F00EF66E260EF76E000EF86E01EE00F224
:102C600010EEC8F00900F5C4EEF4E550E150FAE1C9
:102C70004A0EF66E340EF76E000EF86E01EED1F1CC
:102C800010EE1BF00900F5C4EEF4E550E150FAE156
:102C900001EEF5F210EE00F2EE6AE550E150FCE1D3
:102CA000E250FAE101EEC8F2200EEE6AE806FDE11C
:102CB00001EEA5F12C0EEE6AE806FDE10401080E16
:102CC0005D6F000E5E6F000E5F6F000EF86E00010C
:102CD000FEEF10F00501746F0501756B010142975D
:102CE00000D000D0050174A178EF16F07AEF16F04D
:102CF0007EEF16F00101428980EF16F00101429942
:102D000000D000D00101428700D000D00501D8904A
:102D10007433752B070E756590EF16F092EF16F071
:102D20006EEF16F00101429700D000D001014A89F0
:102D300000D000D00101428700D000D000D000D0E8
:102D40000101429700D000D001014A9900D000D083
:102D50001200016E026A0101429700D000D001A06A
:102D6000B4EF16F0B6EF16F0BAEF16F00101428993
:102D7000BCEF16F00101429900D000D0010142875A
:102D800000D000D0D8900132022A070E0264CBEFA7
:102D900016F0CDEF16F0ABEF16F00101429700D020
:102DA00000D001014A8900D000D00101428700D043
:102DB00000D000D000D00101429700D000D0010126
:102DC0004A9900D000D0120005017C6B02EF17F089
:102DD0007C5178257A6F000E79217B6F7AC5F6F4E5
:102DE0007BC5F7F4F86A0D0EF76403D00800F550C0
:102DF00005D0F6C4E9F4F7C4EAF4EF505AEC1AF03F
:102E000005017C2B78C574F579C575F551EC17F083
:102E100005017C517A6F7B6B74517A5D75517B59DA
:102E2000D8A015EF17F017EF17F0E8EF16F0420EE5
:102E3000E82EFED700D01200096A38EF17F00950CB
:102E40000524076E000E0620086E07C5F6F408C5B7
:102E5000F7F4F86A0D0EF76403D00800F55005D0BA
:102E6000F6C4E9F4F7C4EAF4EF5087EC1AF0092A43
:102E700005C501F506C502F51AEC18F00950076EF4
:102E8000086A0150075C02500858D8A04AEF17F0B2
:102E90004CEF17F01FEF17F0420EE82EFED700D0D0
:102EA000120074C576F575C577F55AEF17F0050170
:102EB000744B752B74C5F6F475C5F7F4F86A0D0EEE
:102EC000F76403D00800F55005D0F6C4E9F4F7C460
:102ED000EAF4EF500009D8A470EF17F072EF17F082
:102EE00057EF17F005017651745D746F775175597E
:102EF000756F12005AC5D9F45BC5DAF4DE6ADD6A73
:102F00005CC5D9F45DC5DAF4DEC45EF5DDC45FF5F9
:102F1000010E5E26000E5F220F0E5E16000E5F167B
:102F20005CC5D9F45DC5DAF45EC5DEF45FC5DDF4D9
:102F30005CC5D9F45DC5DAF4DEC458F5DDC459F5D5
:102F400064EC0FF0120005017E6F05017D51D8B4CD
:102F5000ACEF17F0AEEF17F0B3EF17F07A5180092E
:102F60007A6FB6EF17F07A517F0B7A6F7EC576F5E0
:102F7000000E15EC1AF07AC576F5010E15EC1AF074
:102F80007BC576F5020E15EC1AF07CC576F5030EBE
:102F900015EC1AF0120001C5D9F402C5DAF4DE6AA4
:102FA000DD6A03C5D9F404C5DAF4010EDBBEE2EF35
:102FB00017F0010EDB5008E1DE04D8A0E2EF17F0B5
:102FC000E4EF17F0EAEF17F0020E035E000E045A6A
:102FD000F2EF17F003C5D9F404C5DAF40F0EDE6E74
:102FE000000EDD6E12008FC592F506EF18F08DC54C
:102FF0007EF58EC57FF5920E0501806F050E816FFF
:1030000090C582F591C583F59CEC0CF092C5F6F461
:103010000E0EF76E0800F5500009D8A412EF18F054
:1030200014EF18F0F7EF17F0000E05018E6F000E89
:103030008D6F120001C503F502C504F522EF18F0EB
:10304000014A022A01C5F6F402C5F7F4F86A0D0E2A
:10305000F76403D00800F55005D0F6C4E9F4F7C4CE
:10306000EAF4EF500009D8A438EF18F03AEF18F05E
:1030700020EF18F00350015C016E04500258026EFC
:103080001200960E0501986F050E996F93C59AF57B
:1030900094C59BF5000E9D6F000E9C6F000EA46FF3
:1030A000000EA36F9A0E8D6F050E8E6F95C58FF56E
:1030B000980E906F050E916FF3EC17F005019C517F
:1030C0009325D96E9D519421DA6EDF6A1200F50EB8
:1030D0000501B725D96E060EB821DA6EEBC3DFF411
:1030E000B74BB82BB72906E1B805D8A47AEF18F08A
:1030F0007CEF18F08CEF18F0000EB86F000EB76F71
:10310000F50E426E060E436E44EC0BF042C558F5C8
:1031100043C559F564EC0FF01200096E0850D8B49D
:1031200094EF18F096EF18F09BEF18F00550800917
:10313000056E9EEF18F005507F0B056E09C503F56F
:10314000000E40EC1AF005C503F5010E40EC1AF034
:1031500006C503F5020E40EC1AF007C503F5030E91
:1031600040EC1AF012001CC51FF5C5EF18F01AC587
:103170000BF51BC50CF51F0E0D6E050E0E6E1DC555
:103180000FF51EC510F595EC0DF01FC5F6F40E0EEB
:10319000F76E0800F5500009D8A4D1EF18F0D3EF6E
:1031A00018F0B7EF18F0000E1B6E000E1A6E12002A
:1031B000230E256E050E266E20C527F521C528F5A0
:1031C000000E2A6E000E296E000E316E000E306E5B
:1031D000270E1A6E050E1B6E22C51CF5250E1D6EE0
:1031E000050E1E6EB3EC18F029502024D96E2A501B
:1031F0002120DA6EDF6A120001C5D9F402C5DAF4C3
:10320000DE6ADD6A03C5D9F404C5DAF4010EDBBE5B
:1032100016EF19F0010EDB5007E1140EDE5CD8B09A
:1032200014EF19F016EF19F01AEF19F0020E032639
:10323000000E0422120001C5D9F402C5DAF4DE6AD8
:10324000DD6A03C5D9F404C5DAF4010EDBBE32EF42
:1032500019F0010EDB5008E1DE04D8A032EF19F0BE
:1032600034EF19F038EF19F0020E035E000E045A25
:10327000120074C578F575C579F576C5D9F477C5AA
:10328000DAF40501764B772B78C5E1F479C5E2F4E1
:10329000784B792BDFC4E7F4E750D8A452EF19F04C
:1032A00054EF19F03DEF19F012000201C08BC0512C
:1032B000F00B0309C06FC09DC08FC295C46B100E88
:1032C000C36F150E166F01014A9B0201C18F010EDB
:1032D0000501786F7851D8A40E0E796FE4EC16F0E2
:1032E000120005017BBF77EF19F079EF19F07FEF3E
:1032F00019F07AC57AF57BC57BF58BEF19F07AC5A5
:103300007CF57BC57DF57C1F7D1F7C4B7D2B7CC5B3
:103310007AF57DC57BF5120008BE91EF19F093EFA9
:1033200019F099EF19F007C507F508C508F5A5EFDD
:1033300019F007C509F508C50AF5091E0A1E094A4C
:103340000A2A09C507F50AC508F5120001014A97BE
:103350004A99429742998A0E7CEC1AF0000E0501B8
:103360007A6F000E7B6F000E7C6F000E7D6F000E7B
:10337000A3EC17F01200010141A9C1EF19F0C5EF4C
:1033800019F0016A012AC6EF19F0016A013A010138
:1033900041510118EF0B0118416F1200340E206EDD
:1033A000050E216E390E226E32C523F533C524F584
:1033B000D8EC18F0340E056E050E066E1CEC17F0F6
:1033C00012000001AD518F0B6009AD6FF00EAD170B
:1033D000030EB16F55EC19F0ABEC1AF0A6EC19F036
:1033E00092EC1AF012000101428900D000D00101D4
:1033F000428700D000D00101429900D000D00101E5
:10340000429700D000D012000101428900D000D0C4
:103410000101428700D000D00101429900D000D0C4
:103420000101429700D000D012000501776FF3EC44
:1034300019F005017751C0096AEC16F005017651C3
:103440006AEC16F033EC1AF0120001397477557CEF
:1034500050077C0000000055795E043E55000000D6
:053460000000000F0058
:103466000101429900D000D00101428700D000D06E
:103476000101428900D000D01200046E04EC1AF05B
:103486000450C009A9EC16F00350A9EC16F04DEC57
:103496001AF012000101429900D000D001014287C2
:1034A60000D000D00101428900D000D012000501F1
:1034B600746FBAA261EF1AF063EF1AF05CEF1AF0BC
:1034C60074C5B8F21200010148830401009301019A
:1034D60048850401009507950685120001014C8177
:1034E600040120910101488B0401009B079B068B78
:1034F60012000501766FF3EC19F0050176516AECBE
:1035060016F033EC1AF01200016EBAA28DEF1AF023
:103516008FEF1AF088EF1AF001C5B8F212009BEC93
:103526001AF066EC1AF0A4EC1AF071EC1AF012001C
:103536000101488704010097079706870101419911
:1035460012000101488904010099079906891200B1
:0C355600AA8ED68E120012001200120085
:00000001FF
